{
  "_format": "hh-sol-artifact-1",
  "contractName": "CauvasNFTCollection",
  "sourceName": "contracts/CauvasaNFTCollection.sol",
  "abi": [
    {
      "inputs": [],
      "stateMutability": "nonpayable",
      "type": "constructor"
    },
    {
      "inputs": [],
      "name": "AccessControlBadConfirmation",
      "type": "error"
    },
    {
      "inputs": [
        {
          "internalType": "address",
          "name": "account",
          "type": "address"
        },
        {
          "internalType": "bytes32",
          "name": "neededRole",
          "type": "bytes32"
        }
      ],
      "name": "AccessControlUnauthorizedAccount",
      "type": "error"
    },
    {
      "inputs": [
        {
          "internalType": "address",
          "name": "sender",
          "type": "address"
        },
        {
          "internalType": "uint256",
          "name": "tokenId",
          "type": "uint256"
        },
        {
          "internalType": "address",
          "name": "owner",
          "type": "address"
        }
      ],
      "name": "ERC721IncorrectOwner",
      "type": "error"
    },
    {
      "inputs": [
        {
          "internalType": "address",
          "name": "operator",
          "type": "address"
        },
        {
          "internalType": "uint256",
          "name": "tokenId",
          "type": "uint256"
        }
      ],
      "name": "ERC721InsufficientApproval",
      "type": "error"
    },
    {
      "inputs": [
        {
          "internalType": "address",
          "name": "approver",
          "type": "address"
        }
      ],
      "name": "ERC721InvalidApprover",
      "type": "error"
    },
    {
      "inputs": [
        {
          "internalType": "address",
          "name": "operator",
          "type": "address"
        }
      ],
      "name": "ERC721InvalidOperator",
      "type": "error"
    },
    {
      "inputs": [
        {
          "internalType": "address",
          "name": "owner",
          "type": "address"
        }
      ],
      "name": "ERC721InvalidOwner",
      "type": "error"
    },
    {
      "inputs": [
        {
          "internalType": "address",
          "name": "receiver",
          "type": "address"
        }
      ],
      "name": "ERC721InvalidReceiver",
      "type": "error"
    },
    {
      "inputs": [
        {
          "internalType": "address",
          "name": "sender",
          "type": "address"
        }
      ],
      "name": "ERC721InvalidSender",
      "type": "error"
    },
    {
      "inputs": [
        {
          "internalType": "uint256",
          "name": "tokenId",
          "type": "uint256"
        }
      ],
      "name": "ERC721NonexistentToken",
      "type": "error"
    },
    {
      "inputs": [
        {
          "internalType": "address",
          "name": "owner",
          "type": "address"
        }
      ],
      "name": "OwnableInvalidOwner",
      "type": "error"
    },
    {
      "inputs": [
        {
          "internalType": "address",
          "name": "account",
          "type": "address"
        }
      ],
      "name": "OwnableUnauthorizedAccount",
      "type": "error"
    },
    {
      "anonymous": false,
      "inputs": [
        {
          "indexed": true,
          "internalType": "address",
          "name": "owner",
          "type": "address"
        },
        {
          "indexed": true,
          "internalType": "address",
          "name": "approved",
          "type": "address"
        },
        {
          "indexed": true,
          "internalType": "uint256",
          "name": "tokenId",
          "type": "uint256"
        }
      ],
      "name": "Approval",
      "type": "event"
    },
    {
      "anonymous": false,
      "inputs": [
        {
          "indexed": true,
          "internalType": "address",
          "name": "owner",
          "type": "address"
        },
        {
          "indexed": true,
          "internalType": "address",
          "name": "operator",
          "type": "address"
        },
        {
          "indexed": false,
          "internalType": "bool",
          "name": "approved",
          "type": "bool"
        }
      ],
      "name": "ApprovalForAll",
      "type": "event"
    },
    {
      "anonymous": false,
      "inputs": [
        {
          "indexed": true,
          "internalType": "uint256",
          "name": "tokenId",
          "type": "uint256"
        },
        {
          "indexed": false,
          "internalType": "uint256",
          "name": "startingPrice",
          "type": "uint256"
        },
        {
          "indexed": false,
          "internalType": "uint256",
          "name": "endTime",
          "type": "uint256"
        }
      ],
      "name": "AuctionCreated",
      "type": "event"
    },
    {
      "anonymous": false,
      "inputs": [
        {
          "indexed": true,
          "internalType": "uint256",
          "name": "tokenId",
          "type": "uint256"
        },
        {
          "indexed": false,
          "internalType": "address",
          "name": "winner",
          "type": "address"
        },
        {
          "indexed": false,
          "internalType": "uint256",
          "name": "amount",
          "type": "uint256"
        }
      ],
      "name": "AuctionEnded",
      "type": "event"
    },
    {
      "anonymous": false,
      "inputs": [
        {
          "indexed": false,
          "internalType": "uint256",
          "name": "_fromTokenId",
          "type": "uint256"
        },
        {
          "indexed": false,
          "internalType": "uint256",
          "name": "_toTokenId",
          "type": "uint256"
        }
      ],
      "name": "BatchMetadataUpdate",
      "type": "event"
    },
    {
      "anonymous": false,
      "inputs": [
        {
          "indexed": true,
          "internalType": "address",
          "name": "minter",
          "type": "address"
        }
      ],
      "name": "CopyrightAgreementSigned",
      "type": "event"
    },
    {
      "anonymous": false,
      "inputs": [
        {
          "indexed": true,
          "internalType": "uint256",
          "name": "tokenId",
          "type": "uint256"
        },
        {
          "indexed": false,
          "internalType": "address",
          "name": "bidder",
          "type": "address"
        },
        {
          "indexed": false,
          "internalType": "uint256",
          "name": "amount",
          "type": "uint256"
        }
      ],
      "name": "HighestBidIncreased",
      "type": "event"
    },
    {
      "anonymous": false,
      "inputs": [
        {
          "indexed": false,
          "internalType": "uint256",
          "name": "_tokenId",
          "type": "uint256"
        }
      ],
      "name": "MetadataUpdate",
      "type": "event"
    },
    {
      "anonymous": false,
      "inputs": [
        {
          "indexed": true,
          "internalType": "address",
          "name": "previousOwner",
          "type": "address"
        },
        {
          "indexed": true,
          "internalType": "address",
          "name": "newOwner",
          "type": "address"
        }
      ],
      "name": "OwnershipTransferred",
      "type": "event"
    },
    {
      "anonymous": false,
      "inputs": [
        {
          "indexed": true,
          "internalType": "bytes32",
          "name": "role",
          "type": "bytes32"
        },
        {
          "indexed": true,
          "internalType": "bytes32",
          "name": "previousAdminRole",
          "type": "bytes32"
        },
        {
          "indexed": true,
          "internalType": "bytes32",
          "name": "newAdminRole",
          "type": "bytes32"
        }
      ],
      "name": "RoleAdminChanged",
      "type": "event"
    },
    {
      "anonymous": false,
      "inputs": [
        {
          "indexed": true,
          "internalType": "bytes32",
          "name": "role",
          "type": "bytes32"
        },
        {
          "indexed": true,
          "internalType": "address",
          "name": "account",
          "type": "address"
        },
        {
          "indexed": true,
          "internalType": "address",
          "name": "sender",
          "type": "address"
        }
      ],
      "name": "RoleGranted",
      "type": "event"
    },
    {
      "anonymous": false,
      "inputs": [
        {
          "indexed": true,
          "internalType": "bytes32",
          "name": "role",
          "type": "bytes32"
        },
        {
          "indexed": true,
          "internalType": "address",
          "name": "account",
          "type": "address"
        },
        {
          "indexed": true,
          "internalType": "address",
          "name": "sender",
          "type": "address"
        }
      ],
      "name": "RoleRevoked",
      "type": "event"
    },
    {
      "anonymous": false,
      "inputs": [
        {
          "indexed": true,
          "internalType": "address",
          "name": "from",
          "type": "address"
        },
        {
          "indexed": true,
          "internalType": "address",
          "name": "to",
          "type": "address"
        },
        {
          "indexed": true,
          "internalType": "uint256",
          "name": "tokenId",
          "type": "uint256"
        }
      ],
      "name": "Transfer",
      "type": "event"
    },
    {
      "inputs": [],
      "name": "COPYRIGHT_AGREEMENT_CID",
      "outputs": [
        {
          "internalType": "string",
          "name": "",
          "type": "string"
        }
      ],
      "stateMutability": "view",
      "type": "function"
    },
    {
      "inputs": [],
      "name": "DEFAULT_ADMIN_ROLE",
      "outputs": [
        {
          "internalType": "bytes32",
          "name": "",
          "type": "bytes32"
        }
      ],
      "stateMutability": "view",
      "type": "function"
    },
    {
      "inputs": [],
      "name": "MINTER_ROLE",
      "outputs": [
        {
          "internalType": "bytes32",
          "name": "",
          "type": "bytes32"
        }
      ],
      "stateMutability": "view",
      "type": "function"
    },
    {
      "inputs": [
        {
          "internalType": "address",
          "name": "to",
          "type": "address"
        },
        {
          "internalType": "uint256",
          "name": "tokenId",
          "type": "uint256"
        }
      ],
      "name": "approve",
      "outputs": [],
      "stateMutability": "nonpayable",
      "type": "function"
    },
    {
      "inputs": [
        {
          "internalType": "address",
          "name": "owner",
          "type": "address"
        }
      ],
      "name": "balanceOf",
      "outputs": [
        {
          "internalType": "uint256",
          "name": "",
          "type": "uint256"
        }
      ],
      "stateMutability": "view",
      "type": "function"
    },
    {
      "inputs": [
        {
          "internalType": "uint256",
          "name": "tokenId",
          "type": "uint256"
        }
      ],
      "name": "bid",
      "outputs": [],
      "stateMutability": "payable",
      "type": "function"
    },
    {
      "inputs": [
        {
          "internalType": "uint256",
          "name": "tokenId",
          "type": "uint256"
        },
        {
          "internalType": "uint256",
          "name": "startingPrice",
          "type": "uint256"
        },
        {
          "internalType": "uint256",
          "name": "duration",
          "type": "uint256"
        }
      ],
      "name": "createAuction",
      "outputs": [],
      "stateMutability": "nonpayable",
      "type": "function"
    },
    {
      "inputs": [
        {
          "internalType": "string",
          "name": "tokenURI",
          "type": "string"
        }
      ],
      "name": "createToken",
      "outputs": [
        {
          "internalType": "uint256",
          "name": "",
          "type": "uint256"
        }
      ],
      "stateMutability": "nonpayable",
      "type": "function"
    },
    {
      "inputs": [
        {
          "internalType": "uint256",
          "name": "tokenId",
          "type": "uint256"
        }
      ],
      "name": "endAuction",
      "outputs": [],
      "stateMutability": "nonpayable",
      "type": "function"
    },
    {
      "inputs": [],
      "name": "fetchAuctionItems",
      "outputs": [
        {
          "components": [
            {
              "internalType": "uint256",
              "name": "tokenId",
              "type": "uint256"
            },
            {
              "internalType": "uint256",
              "name": "startingPrice",
              "type": "uint256"
            },
            {
              "internalType": "uint256",
              "name": "highestBid",
              "type": "uint256"
            },
            {
              "internalType": "address payable",
              "name": "highestBidder",
              "type": "address"
            },
            {
              "internalType": "uint256",
              "name": "endTime",
              "type": "uint256"
            },
            {
              "internalType": "bool",
              "name": "ended",
              "type": "bool"
            }
          ],
          "internalType": "struct CauvasNFTCollection.Auction[]",
          "name": "",
          "type": "tuple[]"
        }
      ],
      "stateMutability": "view",
      "type": "function"
    },
    {
      "inputs": [],
      "name": "fetchMyNFTUrisAndIds",
      "outputs": [
        {
          "internalType": "string[]",
          "name": "",
          "type": "string[]"
        },
        {
          "internalType": "uint256[]",
          "name": "",
          "type": "uint256[]"
        }
      ],
      "stateMutability": "view",
      "type": "function"
    },
    {
      "inputs": [
        {
          "internalType": "uint256",
          "name": "tokenId",
          "type": "uint256"
        }
      ],
      "name": "getApproved",
      "outputs": [
        {
          "internalType": "address",
          "name": "",
          "type": "address"
        }
      ],
      "stateMutability": "view",
      "type": "function"
    },
    {
      "inputs": [],
      "name": "getBlockTimestamp",
      "outputs": [
        {
          "internalType": "uint256",
          "name": "",
          "type": "uint256"
        }
      ],
      "stateMutability": "nonpayable",
      "type": "function"
    },
    {
      "inputs": [
        {
          "internalType": "bytes32",
          "name": "role",
          "type": "bytes32"
        }
      ],
      "name": "getRoleAdmin",
      "outputs": [
        {
          "internalType": "bytes32",
          "name": "",
          "type": "bytes32"
        }
      ],
      "stateMutability": "view",
      "type": "function"
    },
    {
      "inputs": [],
      "name": "getTokenIds",
      "outputs": [
        {
          "internalType": "uint256",
          "name": "",
          "type": "uint256"
        }
      ],
      "stateMutability": "view",
      "type": "function"
    },
    {
      "inputs": [],
      "name": "getURIs",
      "outputs": [
        {
          "internalType": "string[]",
          "name": "",
          "type": "string[]"
        }
      ],
      "stateMutability": "view",
      "type": "function"
    },
    {
      "inputs": [
        {
          "internalType": "address",
          "name": "account",
          "type": "address"
        }
      ],
      "name": "giveMinterRole",
      "outputs": [],
      "stateMutability": "nonpayable",
      "type": "function"
    },
    {
      "inputs": [
        {
          "internalType": "bytes32",
          "name": "role",
          "type": "bytes32"
        },
        {
          "internalType": "address",
          "name": "account",
          "type": "address"
        }
      ],
      "name": "grantRole",
      "outputs": [],
      "stateMutability": "nonpayable",
      "type": "function"
    },
    {
      "inputs": [
        {
          "internalType": "address",
          "name": "account",
          "type": "address"
        }
      ],
      "name": "hasAdminRole",
      "outputs": [
        {
          "internalType": "bool",
          "name": "",
          "type": "bool"
        }
      ],
      "stateMutability": "view",
      "type": "function"
    },
    {
      "inputs": [
        {
          "internalType": "address",
          "name": "account",
          "type": "address"
        }
      ],
      "name": "hasMinterRole",
      "outputs": [
        {
          "internalType": "bool",
          "name": "",
          "type": "bool"
        }
      ],
      "stateMutability": "view",
      "type": "function"
    },
    {
      "inputs": [
        {
          "internalType": "bytes32",
          "name": "role",
          "type": "bytes32"
        },
        {
          "internalType": "address",
          "name": "account",
          "type": "address"
        }
      ],
      "name": "hasRole",
      "outputs": [
        {
          "internalType": "bool",
          "name": "",
          "type": "bool"
        }
      ],
      "stateMutability": "view",
      "type": "function"
    },
    {
      "inputs": [
        {
          "internalType": "uint256",
          "name": "",
          "type": "uint256"
        }
      ],
      "name": "idToAuction",
      "outputs": [
        {
          "internalType": "uint256",
          "name": "tokenId",
          "type": "uint256"
        },
        {
          "internalType": "uint256",
          "name": "startingPrice",
          "type": "uint256"
        },
        {
          "internalType": "uint256",
          "name": "highestBid",
          "type": "uint256"
        },
        {
          "internalType": "address payable",
          "name": "highestBidder",
          "type": "address"
        },
        {
          "internalType": "uint256",
          "name": "endTime",
          "type": "uint256"
        },
        {
          "internalType": "bool",
          "name": "ended",
          "type": "bool"
        }
      ],
      "stateMutability": "view",
      "type": "function"
    },
    {
      "inputs": [
        {
          "internalType": "address",
          "name": "owner",
          "type": "address"
        },
        {
          "internalType": "address",
          "name": "operator",
          "type": "address"
        }
      ],
      "name": "isApprovedForAll",
      "outputs": [
        {
          "internalType": "bool",
          "name": "",
          "type": "bool"
        }
      ],
      "stateMutability": "view",
      "type": "function"
    },
    {
      "inputs": [
        {
          "internalType": "address",
          "name": "",
          "type": "address"
        }
      ],
      "name": "minterToCopyrightAgreement",
      "outputs": [
        {
          "internalType": "bool",
          "name": "",
          "type": "bool"
        }
      ],
      "stateMutability": "view",
      "type": "function"
    },
    {
      "inputs": [],
      "name": "name",
      "outputs": [
        {
          "internalType": "string",
          "name": "",
          "type": "string"
        }
      ],
      "stateMutability": "view",
      "type": "function"
    },
    {
      "inputs": [],
      "name": "owner",
      "outputs": [
        {
          "internalType": "address",
          "name": "",
          "type": "address"
        }
      ],
      "stateMutability": "view",
      "type": "function"
    },
    {
      "inputs": [
        {
          "internalType": "uint256",
          "name": "tokenId",
          "type": "uint256"
        }
      ],
      "name": "ownerOf",
      "outputs": [
        {
          "internalType": "address",
          "name": "",
          "type": "address"
        }
      ],
      "stateMutability": "view",
      "type": "function"
    },
    {
      "inputs": [],
      "name": "renounceOwnership",
      "outputs": [],
      "stateMutability": "nonpayable",
      "type": "function"
    },
    {
      "inputs": [
        {
          "internalType": "bytes32",
          "name": "role",
          "type": "bytes32"
        },
        {
          "internalType": "address",
          "name": "callerConfirmation",
          "type": "address"
        }
      ],
      "name": "renounceRole",
      "outputs": [],
      "stateMutability": "nonpayable",
      "type": "function"
    },
    {
      "inputs": [
        {
          "internalType": "address",
          "name": "account",
          "type": "address"
        }
      ],
      "name": "revokeMinterRole",
      "outputs": [],
      "stateMutability": "nonpayable",
      "type": "function"
    },
    {
      "inputs": [
        {
          "internalType": "bytes32",
          "name": "role",
          "type": "bytes32"
        },
        {
          "internalType": "address",
          "name": "account",
          "type": "address"
        }
      ],
      "name": "revokeRole",
      "outputs": [],
      "stateMutability": "nonpayable",
      "type": "function"
    },
    {
      "inputs": [
        {
          "internalType": "address",
          "name": "from",
          "type": "address"
        },
        {
          "internalType": "address",
          "name": "to",
          "type": "address"
        },
        {
          "internalType": "uint256",
          "name": "tokenId",
          "type": "uint256"
        }
      ],
      "name": "safeTransferFrom",
      "outputs": [],
      "stateMutability": "nonpayable",
      "type": "function"
    },
    {
      "inputs": [
        {
          "internalType": "address",
          "name": "from",
          "type": "address"
        },
        {
          "internalType": "address",
          "name": "to",
          "type": "address"
        },
        {
          "internalType": "uint256",
          "name": "tokenId",
          "type": "uint256"
        },
        {
          "internalType": "bytes",
          "name": "data",
          "type": "bytes"
        }
      ],
      "name": "safeTransferFrom",
      "outputs": [],
      "stateMutability": "nonpayable",
      "type": "function"
    },
    {
      "inputs": [
        {
          "internalType": "uint256",
          "name": "tokenId",
          "type": "uint256"
        },
        {
          "internalType": "address payable",
          "name": "to",
          "type": "address"
        }
      ],
      "name": "sendAuctionEarnings",
      "outputs": [],
      "stateMutability": "nonpayable",
      "type": "function"
    },
    {
      "inputs": [
        {
          "internalType": "address",
          "name": "operator",
          "type": "address"
        },
        {
          "internalType": "bool",
          "name": "approved",
          "type": "bool"
        }
      ],
      "name": "setApprovalForAll",
      "outputs": [],
      "stateMutability": "nonpayable",
      "type": "function"
    },
    {
      "inputs": [],
      "name": "signCopyrightAgreement",
      "outputs": [],
      "stateMutability": "nonpayable",
      "type": "function"
    },
    {
      "inputs": [
        {
          "internalType": "bytes4",
          "name": "interfaceId",
          "type": "bytes4"
        }
      ],
      "name": "supportsInterface",
      "outputs": [
        {
          "internalType": "bool",
          "name": "",
          "type": "bool"
        }
      ],
      "stateMutability": "view",
      "type": "function"
    },
    {
      "inputs": [],
      "name": "symbol",
      "outputs": [
        {
          "internalType": "string",
          "name": "",
          "type": "string"
        }
      ],
      "stateMutability": "view",
      "type": "function"
    },
    {
      "inputs": [
        {
          "internalType": "uint256",
          "name": "tokenId",
          "type": "uint256"
        }
      ],
      "name": "tokenURI",
      "outputs": [
        {
          "internalType": "string",
          "name": "",
          "type": "string"
        }
      ],
      "stateMutability": "view",
      "type": "function"
    },
    {
      "inputs": [
        {
          "internalType": "address",
          "name": "from",
          "type": "address"
        },
        {
          "internalType": "address",
          "name": "to",
          "type": "address"
        },
        {
          "internalType": "uint256",
          "name": "tokenId",
          "type": "uint256"
        }
      ],
      "name": "transferFrom",
      "outputs": [],
      "stateMutability": "nonpayable",
      "type": "function"
    },
    {
      "inputs": [
        {
          "internalType": "address",
          "name": "newOwner",
          "type": "address"
        }
      ],
      "name": "transferOwnership",
      "outputs": [],
      "stateMutability": "nonpayable",
      "type": "function"
    }
  ],
  "bytecode": "0x60806040523480156200001157600080fd5b50336040518060400160405280600d81526020016c43617576617320546f6b656e7360981b8152506040518060400160405280600381526020016210d59560ea1b81525081600090816200006691906200029e565b5060016200007582826200029e565b5050506001600160a01b038116620000a757604051631e4fbdf760e01b81526000600482015260240160405180910390fd5b620000b281620000f4565b50620000c060003362000146565b50620000ed7f9f2df0fed2c77648de5860a4cc508cd0818c85b8b8a1ab4ceeef8d981c8956a63362000146565b506200036a565b600880546001600160a01b038381166001600160a01b0319831681179093556040519116919082907f8be0079c531659141344cd1fd0a4f28419497f9722a3daafe3b4186f6b6457e090600090a35050565b60008281526007602090815260408083206001600160a01b038516845290915281205460ff16620001ef5760008381526007602090815260408083206001600160a01b03861684529091529020805460ff19166001179055620001a63390565b6001600160a01b0316826001600160a01b0316847f2f8788117e7eff1d82e926ec794901d17c78024a50270940304540a733656f0d60405160405180910390a4506001620001f3565b5060005b92915050565b634e487b7160e01b600052604160045260246000fd5b600181811c908216806200022457607f821691505b6020821081036200024557634e487b7160e01b600052602260045260246000fd5b50919050565b601f8211156200029957600081815260208120601f850160051c81016020861015620002745750805b601f850160051c820191505b81811015620002955782815560010162000280565b5050505b505050565b81516001600160401b03811115620002ba57620002ba620001f9565b620002d281620002cb84546200020f565b846200024b565b602080601f8311600181146200030a5760008415620002f15750858301515b600019600386901b1c1916600185901b17855562000295565b600085815260208120601f198616915b828110156200033b578886015182559484019460019091019084016200031a565b50858210156200035a5787850151600019600388901b60f8161c191681555b5050505050600190811b01905550565b61290d806200037a6000396000f3fe6080604052600436106102465760003560e01c8063715018a611610139578063c395fcb3116100b6578063d53913931161007a578063d539139314610733578063d547741f14610755578063e848d45f14610775578063e985e9c514610798578063f2fde38b146107b8578063fa1777eb146107d857600080fd5b8063c395fcb31461068e578063c664223d146106ae578063c87b56dd146106c3578063cda4beef146106e3578063d4d41a051461070357600080fd5b8063a217fddf116100fd578063a217fddf146105f6578063a22cb4651461060b578063abcc8c931461062b578063b88d4fde1461064e578063b9a2de3a1461066e57600080fd5b8063715018a61461057b578063796b89b9146105905780638da5cb5b146105a357806391d14854146105c157806395d89b41146105e157600080fd5b806336568abe116101c757806354f891be1161018b57806354f891be146104e65780636352211e1461050657806367f718a91461052657806369e2f0fb1461053b57806370a082311461055b57600080fd5b806336568abe1461045157806342842e0e14610471578063454a2ab31461049157806345576f94146104a457806354d54e0a146104c457600080fd5b8063099db0171161020e578063099db0171461039157806323b872dd146103b1578063248a9ca3146103d157806328c5440f1461040f5780632f2ff15d1461043157600080fd5b806301ffc9a71461024b57806306fdde0314610280578063081812fc146102a2578063089dc92c146102da578063095ea7b31461036f575b600080fd5b34801561025757600080fd5b5061026b61026636600461221d565b6107f8565b60405190151581526020015b60405180910390f35b34801561028c57600080fd5b50610295610809565b604051610277919061228a565b3480156102ae57600080fd5b506102c26102bd36600461229d565b61089b565b6040516001600160a01b039091168152602001610277565b3480156102e657600080fd5b506103376102f536600461229d565b600b602052600090815260409020805460018201546002830154600384015460048501546005909501549394929391926001600160a01b039091169160ff1686565b604080519687526020870195909552938501929092526001600160a01b031660608401526080830152151560a082015260c001610277565b34801561037b57600080fd5b5061038f61038a3660046122cb565b6108c4565b005b34801561039d57600080fd5b5061026b6103ac3660046122f7565b6108d3565b3480156103bd57600080fd5b5061038f6103cc366004612314565b6108ed565b3480156103dd57600080fd5b506104016103ec36600461229d565b60009081526007602052604090206001015490565b604051908152602001610277565b34801561041b57600080fd5b5061042461097d565b60405161027791906123aa565b34801561043d57600080fd5b5061038f61044c3660046123bd565b610a1f565b34801561045d57600080fd5b5061038f61046c3660046123bd565b610a44565b34801561047d57600080fd5b5061038f61048c366004612314565b610a7c565b61038f61049f36600461229d565b610a97565b3480156104b057600080fd5b506104016104bf366004612479565b610c53565b3480156104d057600080fd5b506104d9610d2f565b60405161027791906124c2565b3480156104f257600080fd5b5061038f6105013660046123bd565b610edf565b34801561051257600080fd5b506102c261052136600461229d565b610fda565b34801561053257600080fd5b50600954610401565b34801561054757600080fd5b5061038f6105563660046122f7565b610fe5565b34801561056757600080fd5b506104016105763660046122f7565b611008565b34801561058757600080fd5b5061038f611050565b34801561059c57600080fd5b5042610401565b3480156105af57600080fd5b506008546001600160a01b03166102c2565b3480156105cd57600080fd5b5061026b6105dc3660046123bd565b611064565b3480156105ed57600080fd5b5061029561108f565b34801561060257600080fd5b50610401600081565b34801561061757600080fd5b5061038f610626366004612538565b61109e565b34801561063757600080fd5b506106406110a9565b60405161027792919061256b565b34801561065a57600080fd5b5061038f6106693660046125c2565b611271565b34801561067a57600080fd5b5061038f61068936600461229d565b611288565b34801561069a57600080fd5b5061026b6106a93660046122f7565b6113ed565b3480156106ba57600080fd5b5061038f6113f9565b3480156106cf57600080fd5b506102956106de36600461229d565b6114b4565b3480156106ef57600080fd5b5061038f6106fe366004612642565b6115c5565b34801561070f57600080fd5b5061026b61071e3660046122f7565b600a6020526000908152604090205460ff1681565b34801561073f57600080fd5b506104016000805160206128b883398151915281565b34801561076157600080fd5b5061038f6107703660046123bd565b6116ac565b34801561078157600080fd5b506102956040518060200160405280600081525081565b3480156107a457600080fd5b5061026b6107b336600461266e565b6116d1565b3480156107c457600080fd5b5061038f6107d33660046122f7565b6116ff565b3480156107e457600080fd5b5061038f6107f33660046122f7565b61173d565b600061080382611760565b92915050565b6060600080546108189061269c565b80601f01602080910402602001604051908101604052809291908181526020018280546108449061269c565b80156108915780601f1061086657610100808354040283529160200191610891565b820191906000526020600020905b81548152906001019060200180831161087457829003601f168201915b5050505050905090565b60006108a682611785565b506000828152600460205260409020546001600160a01b0316610803565b6108cf8282336117be565b5050565b60006108036000805160206128b883398151915283611064565b6001600160a01b03821661091c57604051633250574960e11b8152600060048201526024015b60405180910390fd5b60006109298383336117cb565b9050836001600160a01b0316816001600160a01b031614610977576040516364283d7b60e01b81526001600160a01b0380861660048301526024820184905282166044820152606401610913565b50505050565b60095460609060008167ffffffffffffffff81111561099e5761099e6123ed565b6040519080825280602002602001820160405280156109d157816020015b60608152602001906001900390816109bc5790505b50905060005b82811015610a18576109e8816114b4565b8282815181106109fa576109fa6126d0565b60200260200101819052508080610a10906126fc565b9150506109d7565b5092915050565b600082815260076020526040902060010154610a3a816118c4565b61097783836118ce565b6001600160a01b0381163314610a6d5760405163334bd91960e11b815260040160405180910390fd5b610a778282611962565b505050565b610a7783838360405180602001604052806000815250611271565b6000818152600b6020526040902060048101544210610af05760405162461bcd60e51b8152602060048201526015602482015274105d58dd1a5bdb88185b1c9958591e48195b991959605a1b6044820152606401610913565b8060010154341015610b545760405162461bcd60e51b815260206004820152602760248201527f426964206d757374206265206174206c6561737420746865207374617274696e6044820152666720707269636560c81b6064820152608401610913565b80600201543411610ba75760405162461bcd60e51b815260206004820152601d60248201527f546865726520616c7265616479206973206120686967686572206269640000006044820152606401610913565b600281015415610bf357600381015460028201546040516001600160a01b039092169181156108fc0291906000818181858888f19350505050158015610bf1573d6000803e3d6000fd5b505b34600282018190556003820180546001600160a01b0319163390811790915560408051918252602082019290925283917fda0a18da71d8ebd145966339a728fc0d8ccc07c22870d561890d823c515dda6b91015b60405180910390a25050565b60006000805160206128b8833981519152610c6d816118c4565b336000908152600a602052604090205460ff16610cd75760405162461bcd60e51b815260206004820152602260248201527f436f707972696768742061677265656d656e74206d757374206265207369676e604482015261195960f21b6064820152608401610913565b600980549081906000610ce9836126fc565b9190505550610cf833826119cf565b610d0281856119e9565b610d0d333083611a39565b610d256000805160206128b883398151915233611962565b5091505b50919050565b600954606090600080805b83811015610d7b576000818152600b602052604090206005015460ff16610d695782610d65816126fc565b9350505b80610d73816126fc565b915050610d3a565b5060008267ffffffffffffffff811115610d9757610d976123ed565b604051908082528060200260200182016040528015610e0c57816020015b610df96040518060c0016040528060008152602001600081526020016000815260200160006001600160a01b03168152602001600081526020016000151581525090565b815260200190600190039081610db55790505b50905060005b84811015610ed6576000818152600b602052604090206005015460ff16610ec4576000818152600b6020908152604091829020825160c0810184528154815260018201549281019290925260028101549282019290925260038201546001600160a01b031660608201526004820154608082015260059091015460ff16151560a08201528251839085908110610eaa57610eaa6126d0565b60200260200101819052508280610ec0906126fc565b9350505b80610ece816126fc565b915050610e12565b50949350505050565b6000610eea816118c4565b6000838152600b60205260409020600581015460ff16610f445760405162461bcd60e51b8152602060048201526015602482015274105d58dd1a5bdb881b9bdd081e595d08195b991959605a1b6044820152606401610913565b6000816002015411610f8f5760405162461bcd60e51b81526020600482015260146024820152734e6f2066756e647320746f20776974686472617760601b6044820152606401610913565b60028101805460009182905560405190916001600160a01b0386169183156108fc0291849190818181858888f19350505050158015610fd2573d6000803e3d6000fd5b505050505050565b600061080382611785565b6000610ff0816118c4565b610a776000805160206128b883398151915283611962565b60006001600160a01b038216611034576040516322718ad960e21b815260006004820152602401610913565b506001600160a01b031660009081526003602052604090205490565b611058611ae9565b6110626000611b16565b565b60009182526007602090815260408084206001600160a01b0393909316845291905290205460ff1690565b6060600180546108189061269c565b6108cf338383611b68565b6009546060908190600080805b8381101561111d576000818152600b602052604090206005015460ff1680156110f857506000818152600b60205260409020600301546001600160a01b031633145b1561110b5782611107816126fc565b9350505b80611115816126fc565b9150506110b6565b5060008267ffffffffffffffff811115611139576111396123ed565b60405190808252806020026020018201604052801561116c57816020015b60608152602001906001900390816111575790505b50905060008367ffffffffffffffff81111561118a5761118a6123ed565b6040519080825280602002602001820160405280156111b3578160200160208202803683370190505b50905060005b85811015611264576000818152600b602052604090206005015460ff1680156111fb57506000818152600b60205260409020600301546001600160a01b031633145b1561125257611209816114b4565b83858151811061121b5761121b6126d0565b602002602001018190525080828581518110611239576112396126d0565b60209081029190910101528361124e816126fc565b9450505b8061125c816126fc565b9150506111b9565b5090969095509350505050565b61127c8484846108ed565b61097784848484611c07565b6000818152600b6020526040902060048101544210156112e25760405162461bcd60e51b8152602060048201526015602482015274105d58dd1a5bdb881b9bdd081e595d08195b991959605a1b6044820152606401610913565b600581015460ff16156113435760405162461bcd60e51b815260206004820152602360248201527f41756374696f6e20656e642068617320616c7265616479206265656e2063616c6044820152621b195960ea1b6064820152608401610913565b60058101805460ff1916600117905560038101546001600160a01b03161561138457600381015461137f9030906001600160a01b031684611a39565b6113a0565b6113a03061139a6008546001600160a01b031690565b84611a39565b60038101546002820154604080516001600160a01b039093168352602083019190915283917fd2aa34a4fdbbc6dff6a3e56f46e0f3ae2a31d7785ff3487aa5c95c642acea5019101610c47565b60006108038183611064565b6000805160206128b8833981519152611411816118c4565b336000908152600a602052604090205460ff16156114715760405162461bcd60e51b815260206004820152601860248201527f41677265656d656e7420616c7265616479207369676e656400000000000000006044820152606401610913565b336000818152600a6020526040808220805460ff19166001179055517f1478372e4ee05330112bde425ebc410a52d60be14da6e22d8fabc7b57893422a9190a250565b60606114bf82611785565b50600082815260066020526040812080546114d99061269c565b80601f01602080910402602001604051908101604052809291908181526020018280546115059061269c565b80156115525780601f1061152757610100808354040283529160200191611552565b820191906000526020600020905b81548152906001019060200180831161153557829003601f168201915b50505050509050600061157060408051602081019091526000815290565b90508051600003611582575092915050565b8151156115b457808260405160200161159c929190612715565b60405160208183030381529060405292505050919050565b6115bd84611d30565b949350505050565b60006115d0816118c4565b60006115dc8342612744565b6040805160c08101825287815260208082018881526000838501818152606085018281526080860188815260a087018481528e8552600b875293889020965187559351600187015590516002860155516003850180546001600160a01b0319166001600160a01b0390921691909117905590516004840155516005909201805460ff191692151592909217909155815187815290810183905291925086917fd6eddd1118d71820909c1197aa966dbc15ed6f508554252169cc3d5ccac756ca910160405180910390a25050505050565b6000828152600760205260409020600101546116c7816118c4565b6109778383611962565b6001600160a01b03918216600090815260056020908152604080832093909416825291909152205460ff1690565b611707611ae9565b6001600160a01b03811661173157604051631e4fbdf760e01b815260006004820152602401610913565b61173a81611b16565b50565b6000611748816118c4565b610a776000805160206128b8833981519152836118ce565b60006001600160e01b03198216637965db0b60e01b1480610803575061080382611da5565b6000818152600260205260408120546001600160a01b03168061080357604051637e27328960e01b815260048101849052602401610913565b610a778383836001611dca565b6000828152600260205260408120546001600160a01b03908116908316156117f8576117f8818486611ed0565b6001600160a01b0381161561183657611815600085600080611dca565b6001600160a01b038116600090815260036020526040902080546000190190555b6001600160a01b03851615611865576001600160a01b0385166000908152600360205260409020805460010190555b60008481526002602052604080822080546001600160a01b0319166001600160a01b0389811691821790925591518793918516917fddf252ad1be2c89b69c2b068fc378daa952ba7f163c4a11628f55a4df523b3ef91a4949350505050565b61173a8133611f34565b60006118da8383611064565b61195a5760008381526007602090815260408083206001600160a01b03861684529091529020805460ff191660011790556119123390565b6001600160a01b0316826001600160a01b0316847f2f8788117e7eff1d82e926ec794901d17c78024a50270940304540a733656f0d60405160405180910390a4506001610803565b506000610803565b600061196e8383611064565b1561195a5760008381526007602090815260408083206001600160a01b0386168085529252808320805460ff1916905551339286917ff6391f5c32d9c69d2a47ea670b442974b53935d1edc7fd64eb21e047a839171b9190a4506001610803565b6108cf828260405180602001604052806000815250611f6d565b6000828152600660205260409020611a01828261279d565b506040518281527ff8e1a15aba9398e019f0b49df1a4fde98ee17ae345cb5f6b5e2c27f5033e8ce79060200160405180910390a15050565b6001600160a01b038216611a6357604051633250574960e11b815260006004820152602401610913565b6000611a71838360006117cb565b90506001600160a01b038116611a9d57604051637e27328960e01b815260048101839052602401610913565b836001600160a01b0316816001600160a01b031614610977576040516364283d7b60e01b81526001600160a01b0380861660048301526024820184905282166044820152606401610913565b6008546001600160a01b031633146110625760405163118cdaa760e01b8152336004820152602401610913565b600880546001600160a01b038381166001600160a01b0319831681179093556040519116919082907f8be0079c531659141344cd1fd0a4f28419497f9722a3daafe3b4186f6b6457e090600090a35050565b6001600160a01b038216611b9a57604051630b61174360e31b81526001600160a01b0383166004820152602401610913565b6001600160a01b03838116600081815260056020908152604080832094871680845294825291829020805460ff191686151590811790915591519182527f17307eab39ab6107e8899845ad3d59bd9653f200f220920489ca2b5937696c31910160405180910390a3505050565b6001600160a01b0383163b1561097757604051630a85bd0160e11b81526001600160a01b0384169063150b7a0290611c4990339088908790879060040161285d565b6020604051808303816000875af1925050508015611c84575060408051601f3d908101601f19168201909252611c819181019061289a565b60015b611ced573d808015611cb2576040519150601f19603f3d011682016040523d82523d6000602084013e611cb7565b606091505b508051600003611ce557604051633250574960e11b81526001600160a01b0385166004820152602401610913565b805181602001fd5b6001600160e01b03198116630a85bd0160e11b14611d2957604051633250574960e11b81526001600160a01b0385166004820152602401610913565b5050505050565b6060611d3b82611785565b506000611d5360408051602081019091526000815290565b90506000815111611d735760405180602001604052806000815250611d9e565b80611d7d84611f84565b604051602001611d8e929190612715565b6040516020818303038152906040525b9392505050565b60006001600160e01b03198216632483248360e11b1480610803575061080382612017565b8080611dde57506001600160a01b03821615155b15611ea0576000611dee84611785565b90506001600160a01b03831615801590611e1a5750826001600160a01b0316816001600160a01b031614155b8015611e2d5750611e2b81846116d1565b155b15611e565760405163a9fbf51f60e01b81526001600160a01b0384166004820152602401610913565b8115611e9e5783856001600160a01b0316826001600160a01b03167f8c5be1e5ebec7d5bd14f71427d1e84f3dd0314c0f7b2291e5b200ac8c7c3b92560405160405180910390a45b505b5050600090815260046020526040902080546001600160a01b0319166001600160a01b0392909216919091179055565b611edb838383612067565b610a77576001600160a01b038316611f0957604051637e27328960e01b815260048101829052602401610913565b60405163177e802f60e01b81526001600160a01b038316600482015260248101829052604401610913565b611f3e8282611064565b6108cf5760405163e2517d3f60e01b81526001600160a01b038216600482015260248101839052604401610913565b611f7783836120ca565b610a776000848484611c07565b60606000611f918361212f565b600101905060008167ffffffffffffffff811115611fb157611fb16123ed565b6040519080825280601f01601f191660200182016040528015611fdb576020820181803683370190505b5090508181016020015b600019016f181899199a1a9b1b9c1cb0b131b232b360811b600a86061a8153600a8504945084611fe557509392505050565b60006001600160e01b031982166380ac58cd60e01b148061204857506001600160e01b03198216635b5e139f60e01b145b8061080357506301ffc9a760e01b6001600160e01b0319831614610803565b60006001600160a01b038316158015906115bd5750826001600160a01b0316846001600160a01b031614806120a157506120a184846116d1565b806115bd5750506000908152600460205260409020546001600160a01b03908116911614919050565b6001600160a01b0382166120f457604051633250574960e11b815260006004820152602401610913565b6000612102838360006117cb565b90506001600160a01b03811615610a77576040516339e3563760e11b815260006004820152602401610913565b60008072184f03e93ff9f4daa797ed6e38ed64bf6a1f0160401b831061216e5772184f03e93ff9f4daa797ed6e38ed64bf6a1f0160401b830492506040015b6d04ee2d6d415b85acef8100000000831061219a576d04ee2d6d415b85acef8100000000830492506020015b662386f26fc1000083106121b857662386f26fc10000830492506010015b6305f5e10083106121d0576305f5e100830492506008015b61271083106121e457612710830492506004015b606483106121f6576064830492506002015b600a83106108035760010192915050565b6001600160e01b03198116811461173a57600080fd5b60006020828403121561222f57600080fd5b8135611d9e81612207565b60005b8381101561225557818101518382015260200161223d565b50506000910152565b6000815180845261227681602086016020860161223a565b601f01601f19169290920160200192915050565b602081526000611d9e602083018461225e565b6000602082840312156122af57600080fd5b5035919050565b6001600160a01b038116811461173a57600080fd5b600080604083850312156122de57600080fd5b82356122e9816122b6565b946020939093013593505050565b60006020828403121561230957600080fd5b8135611d9e816122b6565b60008060006060848603121561232957600080fd5b8335612334816122b6565b92506020840135612344816122b6565b929592945050506040919091013590565b600081518084526020808501808196508360051b8101915082860160005b8581101561239d57828403895261238b84835161225e565b98850198935090840190600101612373565b5091979650505050505050565b602081526000611d9e6020830184612355565b600080604083850312156123d057600080fd5b8235915060208301356123e2816122b6565b809150509250929050565b634e487b7160e01b600052604160045260246000fd5b600067ffffffffffffffff8084111561241e5761241e6123ed565b604051601f8501601f19908116603f01168101908282118183101715612446576124466123ed565b8160405280935085815286868601111561245f57600080fd5b858560208301376000602087830101525050509392505050565b60006020828403121561248b57600080fd5b813567ffffffffffffffff8111156124a257600080fd5b8201601f810184136124b357600080fd5b6115bd84823560208401612403565b602080825282518282018190526000919060409081850190868401855b8281101561239d57815180518552868101518786015285810151868601526060808201516001600160a01b0316908601526080808201519086015260a09081015115159085015260c090930192908501906001016124df565b6000806040838503121561254b57600080fd5b8235612556816122b6565b9150602083013580151581146123e257600080fd5b60408152600061257e6040830185612355565b82810360208481019190915284518083528582019282019060005b818110156125b557845183529383019391830191600101612599565b5090979650505050505050565b600080600080608085870312156125d857600080fd5b84356125e3816122b6565b935060208501356125f3816122b6565b925060408501359150606085013567ffffffffffffffff81111561261657600080fd5b8501601f8101871361262757600080fd5b61263687823560208401612403565b91505092959194509250565b60008060006060848603121561265757600080fd5b505081359360208301359350604090920135919050565b6000806040838503121561268157600080fd5b823561268c816122b6565b915060208301356123e2816122b6565b600181811c908216806126b057607f821691505b602082108103610d2957634e487b7160e01b600052602260045260246000fd5b634e487b7160e01b600052603260045260246000fd5b634e487b7160e01b600052601160045260246000fd5b60006001820161270e5761270e6126e6565b5060010190565b6000835161272781846020880161223a565b83519083019061273b81836020880161223a565b01949350505050565b80820180821115610803576108036126e6565b601f821115610a7757600081815260208120601f850160051c8101602086101561277e5750805b601f850160051c820191505b81811015610fd25782815560010161278a565b815167ffffffffffffffff8111156127b7576127b76123ed565b6127cb816127c5845461269c565b84612757565b602080601f83116001811461280057600084156127e85750858301515b600019600386901b1c1916600185901b178555610fd2565b600085815260208120601f198616915b8281101561282f57888601518255948401946001909101908401612810565b508582101561284d5787850151600019600388901b60f8161c191681555b5050505050600190811b01905550565b6001600160a01b03858116825284166020820152604081018390526080606082018190526000906128909083018461225e565b9695505050505050565b6000602082840312156128ac57600080fd5b8151611d9e8161220756fe9f2df0fed2c77648de5860a4cc508cd0818c85b8b8a1ab4ceeef8d981c8956a6a2646970667358221220a333d5787502cc78eb61232d8d5a185f251f50e409fe6a6f7cd31af53e9d0be764736f6c63430008140033",
  "linkReferences": {},
  "deployedLinkReferences": {}
}